:02000000A22E2E
:10000800FF00030E8301EC000A08EB008A01700868
:10001800A5007108A4007B08A3007C08A2007D0845
:10002800A1000408A6008B1C48288B104308003A3E
:10003800031D42280130C30088268030F00080303C
:1000480083125D067002031D2B285C084B3C031CC1
:100058003D2880305D06F00080307002031D362890
:1000680023305C02031C3D285C08C6005D08C700FD
:1000780041283C30C6000030C70048284308013AF0
:10008800031D4828C30148280B1DA6286430810099
:100098000B114308013A031D71286108013A031D39
:1000A8007128D00A0319D10ABB2500305106031D57
:1000B8005F2864305006031D7028D001D10149081B
:1000C800013A031D6928C90170284908003A031D2F
:1000D80070280130C9007028A6284308013A031D7A
:1000E800A6286108003A031DA628D40A0319D50AD0
:1000F800D00A0319D10A5508013A031D8528F4309E
:100108005406031D8D289E258312D401D501013084
:10011800E10000305106031D932864305006031D8A
:10012800A428D001D1015308013A031D9D28D30109
:10013800A4285308003A031DA4280130D300A4289A
:100148004D25A6282508F0002408F1002308FB0007
:100158002208FC002108FD00260884006B088A009C
:0A0168006C0E8300FF0E7F0E0900ED
:0E017200F201F101F001F801F3010030080084
:08018000FA1FF2130030080021
:100188007B15FB1FCE280130F300F201F101F001CD
:08019800FA0DF20CFF30080023
:0E01A0008316031340088A003F0882000800FF
:1001AE00831603131419E5281F301105F100710889
:1001BE00003A031DE5280130F000E628F0010800A2
:0E01CE001D3083120313FD00FD0BEB2808000B
:1001DC00710DF80DF90D7408F8027508031C750FF4
:1001EC00F902F00DF10D0F30FC00710DF80DF90D49
:1001FC007408701C0729F8027508031C750FF902A6
:10020C000C29F80775080318750FF907F00DF10D97
:10021C00FC0BFB28701818297408F80775080318CC
:08022C00750FF907000008003E
:10023400A0017208031D2F297108F2007008F10053
:10024400F001A0157208031D2F297108F200F101B5
:10025400A0112016720803193D292008F302031D7A
:10026400031C41290310F21B4529F00DF10DF20D79
:10027400F30B352941290130FC00B920482902300B
:0E028400FC00C42048290430FC00C020080003
:100292007B14FB1F5429F201FA1FFF30F200F10018
:0A02A200F000FA0DF20CFF30080026
:1002AC00FB14FB1F6029FF30F300F200F100F0009B
:0802BC00FA0DF20CFF300800FE
:0802C400831603131115080055
:1002CC00831203137008F8007108F000F101F201B9
:1002DC00F301FB01FC019630F300FA01F01F7C29BD
:1002EC00F809F009F80A0319F00AFA177008F10076
:0C02FC007808F000F801F2011A21080057
:10030800831203138613D001D10187120711080045
:0E0318008316031340088A003F088200080085
:10032600831203139F01C0309F046009F000700818
:1003360083169F051F179F174508F000F00D7010D4
:10034600F00D7010F00D7010700883129F041F14CA
:10035600E7201F151F1DB1290000AD291F101E081B
:10036600F100F00183161E08F0040030F1040800C5
:1003760083120313FB017308031D77080319122A5E
:1003860072087606FA007708F3077E30031CCF2939
:10039600F3020318152AD229F302031C182A72083D
:1003A600F8007108FC007008FD00F817F617031036
:1003B600F201F101F0011830A0007D1CEC2974084F
:1003C600F00775080318750FF10776080318760FFE
:1003D600F207F20CF10CF00CF80CFC0CFD0C0310FF
:1003E600A00BE029F21BFC29F80DF00DF10DF20D22
:1003F600F3037B1B701C0E2AF81F0E2AF00A031942
:10040600F10A0319F20A031D0E2AF20CF10CF00C84
:10041600F30A0319152AFA1FF21300301A2A0130BB
:10042600B9201A2A023056211A2A0430C4200000A4
:020436000800BC
:100438008312031358088316C700831259088316BA
:10044800C80083125A088316C90083125B088316F2
:10045800CA0083128C118316911583128C19592A9C
:10046800580859045A045B040319582A8316470884
:10047800480449044A04031D4E2A2C08840003300A
:100488008000840A2A08BF002B08C000D0208A11E7
:100498000A12592A013083160313C702031CC80223
:1004A800031CC902031CCA02312A0313831213084E
:1004B8008316C60083122808003A031D662A83168D
:1004C8009116682A8316911283128C1183161116BD
:1004D800831258088316C700831259088316C80068
:1004E80083125A088316C90083125B088316CA0050
:1004F80083128C19A42A580859045A045B04031956
:10050800A32A83164708480449044A04031D992A64
:100518002C08840003308000840A2A08BF002B08B6
:10052800C000D0208A110A12A42A013083160313AE
:10053800C702031CC802031CC902031CCA027C2A86
:0A054800831603134608F0000800B4
:10055200831203137408003A031DB82A7508003A7F
:10056200031DB82AFF30F0007F30F100112B8312F7
:100572000313FD01F901F801710870040319003435
:1005820071087506FA00FA1BFD09FB01F51FCE2A58
:10059200F409F509F40A0319F50AF11FD52AF0093D
:1005A200F109F00A0319F10A71087504FA00FA1B3D
:1005B200EA2AEE207B18FD2AFD1F0034F009F1091A
:1005C200F00A0319F10AF809F909F80A0319F90AF4
:1005D2000034F51FF92AF11BF52A7108F900700899
:1005E200F800F101F001DD2AF101F001F00A003416
:1005F200F109F009FB0ADA2AF80A0319F90A740860
:100602007802031DDD2A75087902031DDD2AF9012E
:10061200F801F00A0319F10AF11FDD2A0000FF3484
:020622000800CE
:1006240083120313FB01730803194F2B7208FA009A
:10063400F2178E30F302F31F522BF309F30A08303A
:100644007302031C352BF300F10D7208F100F20163
:1006540008307302031C352BF300F10DF10173080C
:10066400031D03103D2B730803193D2B0310F20CDB
:10067400F10CF30B382B7B1B711C472B031C472BF2
:10068400F10A0319F20AF21B5E2BFA1F612BF2091D
:10069400F109F10A0319F20A612BF201F101612B4C
:1006A4007B14FB1F642BF201FA1F642BFF30F20052
:1006B400F100FA0DF20C642B0130FC00662B0030C3
:1006C400FC00662BFF30FC00FC0803196A2B49214F
:0A06D4007108F0007208F100080040
:1006DE0083120313DE0A0319DF0A00305F06031DBF
:1006EE007A2B0A305E06031D802BDE01DF01D2015C
:0406FE00802B080045
:10070200831203138C112708930058088316C6001E
:10071200831259088316C70083125A088316C80029
:1007220083125B088316C9008316141DC12B831222
:10073200580859045A045B040319C02B831646084F
:10074200470448044904031DB72B2C0884000430D5
:100752008000840A2A08BF002B08C000D0208A111A
:100762000A12013083120313F000042C01308316A5
:10077200C602031CC702031CC802031CC902952B34
:10078200831258088316C600831259088316C700BD
:1007920083125A088316C80083125B088316C900A5
:1007A20083128C19FC2B580859045A045B04031950
:1007B200FB2B83164608470448044904031DF22B09
:1007C2002C08840004308000840A2A08BF002B0809
:1007D200C000D0208A110A12013083120313F000E4
:1007E200042C01308316C602031CC702031CC80274
:1007F200031CC902D12B8316111B012CF001042CFE
:0808020011150230F00008009E
:10080A008312031358088316C800831259088316E3
:10081A00C90083125A088316CA0083125B0883161A
:10082A00CB00C601C7014708123C031D1E2C46080F
:10083A008E3C031C292CD72070080319252C292C3F
:10084A00C60A0319C70A182C12304702031D2F2C97
:10085A008F304602031C342C7B30F000622C1114BA
:10086A008316111C612C8312580859045A045B041C
:10087A000319602C8316480849044A044B04031DD3
:10088A00572C2C08840005308000840A2A08BF00EF
:10089A002B08C000D0208A110A12013083120313D8
:1008AA00F000622C01308316C802031CC902031C23
:0C08BA00CA02031CCB02352CF001080020
:1008C600831203136408003A031D6C2C0130E40004
:1008D600732C6408643A031D732C0A30E400732CED
:0208E600080008
:1008E8008B170B178B1683160313811101158114AF
:0A08F800011464308312810008002F
:08090200842188018501080031
:10090A00831203136408013A031DA62C6430E40021
:10091A000A30F4000030F5006708F0006808F100BA
:10092A00A9227808F0007908F1007008E20071083D
:10093A00E3007008A03E84000008880085160512AE
:10094A00CC2C64080A3A031DCC2CE4010A30F400CA
:10095A000030F5006708F0006808F100A922700865
:10096A00E9007108EA000A30F4000030F500A92213
:10097A007808F0007908F1007008E5007108E600CF
:10098A007008A03E84000008880085120516080039
:10099A008C218A110A128000840ABF0A0319C00A2C
:0809AA00F003031DCD2C080031
:1009B200FF3083160313B000FF30B100FF30B200E6
:1009C200FF3083129F01C0309F046009F00070085D
:0E09D20083169F051F179F1783121F1408001E
:1009E00083160313880105150512851206140615D2
:1009F0008614861387120711831287120711861334
:060A0000880185010800D9
:0C0A06008B178316031306140B16080050
:100A1200831203134908013A031D112D8617172D5E
:100A22004908003A031D172D8613172D0530460776
:100A3200F10047080318013EF20080304B06F00037
:100A4200803072067002031D282D71084A020318B5
:0E0A52002D2D871607112F2D0230C800080029
:100A600083120313861705304602F1000030031C81
:100A7000013E4702F20080307206F00080304B06E3
:100A80007002031D452D4A08710203184A2D871272
:0A0A900007154C2D0230C8000800C5
:100A9A0083120313D60A0319D70A00305706031D17
:100AAA00582D0A305606031D8C2D0619722D013059
:100ABA00D300D001D10180304706F00080307002A7
:100ACA00031D692D4B30460203186F2D0530C607EA
:100ADA000318C70AD401D5018A2D86188A2D013038
:100AEA00D300D001D1018030F00080304706700277
:100AFA00031D812D4608233C0318872D0530C602A5
:100B0A00031CC703D401D5018A2DD601D701530886
:100B1A00013A031D962D4608E7004708E8006324BA
:100B2A009D2D5308003A031D9D2D8801851205123B
:020B3A000800B1
:100B3C000524A23083120313A7008123831203130D
:100B4C00A7018123831203134608A7008123622186
:100B5C000330FB000830FC007730FD00FD0BB42D9A
:0A0B6C00FC0BB42DFB0BB42D0800A8
:100B760083120313D60A0319D70A63246F2300309E
:100B86005706031DC82D0A305606031DD62D061D11
:100B9600CF2D861CCF2DD42DE1010130D300D001FD
:080BA600D101D601D7010800BE
:100BAE00D73083160313AD000030AE000030AF0017
:100BBE0000300530B9000430BA000030BB00003000
:100BCE00FF30BC00FF30BD000030BE0000301C30D6
:100BDE00B3000230B4002830B50000308130B600CA
:100BEE000330B7002730B800003062308312ED00BA
:100BFE000130EE000030EF00003083161413941312
:0C0C0E0007168715383083129400080088
:100C1A00831203135208003A031D872E0130D200B3
:100C2A0002308316C500932170088312CC00710824
:100C3A00CD006621E130F4007A30F5001C30F60070
:100C4A008130F700BB2112237008CE007108CF0053
:100C5A000A30F4000030F500A9227008AD007108CE
:100C6A00AE002908F2002A08F300F20DF30D721003
:100C7A0072082F3E8400700880007108840A800080
:100C8A00AB01AC01C401C50180304506F0008030DB
:100C9A007002031D522E0A3044020318692E4408BA
:100CAA00F0004508F100F00DF10D701070082F3EAC
:100CBA0084000008AB07840A00080318013EAC0749
:100CCA00C40A0319C50A492E0A30F4000030F50097
:100CDA002B08F0002C08F100A9227008CA0071083C
:100CEA00CB007008E7007108E800A90A0319AA0AEC
:100CFA0000302A06031D832E0A302906031D872E7B
:060D0A00A901AA01080086
:100D10000524A23083120313A70081238312031337
:100D2000A70181230524A33083120313A700812385
:100D300083120313A8011C2270088312DC00DD015A
:040D40006221080024
:100D4400502774240325D924F024283083169300D3
:100D5400D7254308013A031DFA2E6108013A031D01
:100D6400F22E0D2605304A07F1004B080318013E08
:100D7400F20080304706F000803072067002031DD6
:100D8400C52E71084602031CC92EC801E02E053089
:100D94004A02F1000030031C013E4B02F200803095
:100DA4007206F000803047067002031DDB2E4608F1
:100DB4007102031CE02E0130C800E02E4808003AFE
:100DC400031DE62E0925F12E4808013A031DEC2ED9
:100DD4003025F12E4808023A031DF12E8421F92E04
:100DE4006108003A031DF92E861387120711FB2EA2
:080DF40081248524AB2EFD2EA5
:100EA000293084003E3083120313F0000330831690
:100EB000BF000730C000CD24A03084000A30831268
:100EC000F00041308316BF000730C000CD246730EA
:100ED000840004308312F0004B308316BF000730CB
:060EE000C000CD24080053
:040E06000034003480
:040E0A00003400347C
:040E0E000034003478
:100E12000034003400340034003400340034003430
:100E22000034003400340034003400340034003420
:080E32000034003400340034E8
:020E3A00003482
:040E3C00003400344A
:040E40003C3400340A
:020E4400023476
:020E4600013475
:040E4800003400343E
:040E4C00003400343A
:040E50000034003436
:040E54000034003432
:020E5800003464
:020E5A00013461
:040E5C00003400342A
:040E60000034003426
:080E64000034003400340034B6
:040E6C00003400341A
:040E70000034003416
:020E74000F3439
:020E7600013445
:040E7800003400340E
:020E7C0001343F
:040E7E000034003408
:100E82003F3406345B344F3466346D347D3407347A
:040E92007F346F3406
:040E960000340034F0
:040E9A0000340034EC
:02400E004A2F37
:00000001FF
